:100000000C9405010C941F0D0C94500D0C94810D53
:100010000C94B20D0C94E30D0C94140E0C94450E3C
:100020000C94760E0C9432010C9432010C94320133
:100030000C9432010C9432010C9432010C94320174
:100040000C9432010C9432010C9432010C94320164
:100050000C94430C0C9432010C9432010C94071252
:100060000C9432010C9431040C9478050C943201F8
:100070000C9432010C9432010C9432010C94320134
:100080000C9432010C9432010C9432010C94320124
:100090000C9470040C94B7050C9432010C94541019
:1000A0000C9432010C9432010C9432010C94320104
:1000B0000C9432010C9432010C9432010C943201F4
:1000C0000C9432010C9432010C9432010C94B00463
:1000D0000C94F6050C9432010C94F0040C94350643
:1000E0000C94320100002100240027002A002D007A
:1000F0003000330001010000040107010A01000083
:100100002200250028002B002E00310034000201BF
:100110000000050108010B0100002000230026005B
:1001200029002C002F00320000010000030106010D
:10013000090105050505070508080808020202026D
:100140000A0A080804040404010101010101010173
:100150000303030303030303040707070C0C0C0C3E
:100160000C0C0C0C02020202060606060606060627
:100170000B0B0B0B0B0B0B0B0102102020080810B4
:100180002040102040800201020108040201010207
:1001900004081020408080402010080402018004E0
:1001A000020180402010080402010804020101023B
:1001B0000408102040800102040810204080000044
:1001C000090A02080B0C0D070603040100000000D9
:1001D000000000000000000000000000000000001F
:1001E0000000000000000000000011100F000000DF
:1001F00000000000000000000000000000000000FF
:10020000000000004C01A507E10E11241FBECFEF36
:10021000D1E2DEBFCDBF00E00CBF12E0A0E0B2E053
:10022000E0E2FDE200E00BBF02C007900D92A636AF
:10023000B107D9F71BBE16E0A6E6B2E001C01D92D9
:10024000AA33B107E1F712E0CAE0D2E004C0229776
:10025000FE010E948A16C430D107C9F70E948C0F94
:100260000C948E160C94000080919B0290919C023D
:10027000019690939C0280939B02089580919D0229
:1002800090919E02019690939E0280939D02089504
:1002900081E08093AB02089586E692E00E94DB083D
:1002A00008950F931F93162F072F8C3429F0823552
:1002B00051F0813471F403C08091080206C080912E
:1002C00008020E94181380910A02612F702F0E9469
:1002D00018131F910F910895EF92FF920F931F93A0
:1002E000CF93DF937C0100E012E0C0E0D0E0B701E3
:1002F0000C2E02C0759567950A94E2F76170F801BB
:1003000080810E94AB1421960E5F1F4FC430D1052F
:1003100071F7DF91CF911F910F91FF90EF900895AA
:100320008EEE94E06AE872E041E150E00E94E2095A
:1003300080918A02863721F480918B02882329F0EC
:10034000EBE8F2E091E040E02DC0ECE8F2E090E074
:100350008191980F82E0EA39F807D1F780818917F7
:10036000A9F580911F0280932D023C97A1E2B2E093
:1003700081918D9390912D02890F80932D0282E0BF
:10038000EA39F807A9F78091A7029091A802892B72
:10039000E9F08CEC94E06DE172E041E150E00E9404
:1003A0008C0908958081863731F4903119F081816C
:1003B000882309F4492F9F5F3196913199F78EEE8A
:1003C00094E06AE872E050E00E94E2090895CF9359
:1003D000DF938CEC94E063E872E047E050E00E9429
:1003E000E20980918302863709F083C080918402FC
:1003F000882309F07EC05091850240918702809148
:100400008602850F840F20918802820F90918902C5
:10041000981709F06EC0503239F0503309F453C0C8
:10042000503F09F066C05DC0463034F44430BCF43F
:1004300041504230E0F413C0483089F049301CF498
:100440004630A9F405C0493019F04A3081F407C09C
:1004500068E22602B0011124615A7F4F06C069E1AB
:100460002602B001112465567F4F81E403C081E468
:1004700060E070E00E94510180918702992787FD1A
:1004800090950E946C018091180290918702909340
:100490001A02980F8091880280931B02890F809323
:1004A0001C02C6E1D2E08CEC94E069910E946507E1
:1004B00065E070E080E090E00E945D1282E0CD3166
:1004C000D80789F716C0842F992787FD9095982F14
:1004D000882730E0822B932B9093A6028093A5026D
:1004E00008C064EF71E080E090E00E945D120C941F
:1004F0000000DF91CF910895CF92DF92EF92FF92AB
:100500000F931F932091A5023091A6028091A30220
:100510009091A4028217930709F47BC03093A40240
:100520002093A3028091A7029091A80230FF0FC0F0
:10053000892B69F581E090E09093A8028093A7024F
:100540008EEE94E06CE072E045E050E01EC0892B36
:10055000F1F01092A8021092A7028EEE94E061E1F1
:1005600072E045E050E00E948C09E1E2F2E0119275
:1005700082E0ED32F807D9F780911F0280837097EF
:100580008CEC94E0BF0141E150E00E948C09E2E371
:10059000F2E0119282E0E334F807D9F78091A302E8
:1005A000882339F081E090E09093AA028093A90219
:1005B00017C08091A9029091AA02892B89F010920C
:1005C000AA021092A90280913002809343028CEC1F
:1005D00094E0BF016551704046E150E00E948C09F3
:1005E0008091A30281FF0FC086E064E371E043E0E5
:1005F00050E00E94770C87E06EE371E043E050E04A
:100600000E94770C06C086E00E94F30C87E00E94EF
:10061000F30C8091AB0290E02091A9023091AA02E4
:1006200082239323892B09F4DFC01092AB028091BF
:10063000A3028C7F09F487C086E692E065E772E04A
:1006400047E752E029E732E00BE712E0FDE7EF2E43
:10065000F2E0FF2EEFE7CE2EE2E0DE2E0E94DF0872
:100660008091A3029091A4022091A5023091A6024C
:100670008217930709F067C027FFA2C08091750217
:1006800090917602909382028093810280918202FF
:1006900080933202809181028093330291C08091D5
:1006A00077029091780290938202809381028091E8
:1006B000820280933402809181028093350282C04D
:1006C0008091790290917A029093820280938102C4
:1006D000809182028093360280918102809337025A
:1006E00073C080917B0290917C02909382028093F0
:1006F00081028091820280933802809181028093EE
:10070000390264C080917D0290917E0290938202B2
:10071000809381028091820280933A0280918102CB
:1007200080933B0255C080917F029091800290930C
:100730008202809381028091820280933C028091A8
:10074000810280933D028091A3029091A402409186
:10075000A5025091A6028417950709F045C041FFF4
:100760003AC030919B0290919C0230939F029093EB
:10077000A00220919D0280919E022093A10280936D
:10078000A20290933E0230933F0280934002209356
:10079000410221C01092420220C0819190914302F7
:1007A000890F8093430282E0E334F807B1F775972D
:1007B0008CEC94E0BF0146E150E00E948C0914C02B
:1007C00026FD6DCF25FD7CCF24FD8BCF23FD9ACF59
:1007D00022FDA9CFB8CF40FDDDCF809130028093BC
:1007E0004302E2E3F2E0D9CF1F910F91FF90EF9027
:1007F000DF90CF900895CF93DF938CEC94E040E0AE
:1008000052EC61E070E00E9474068EEE94E040E0ED
:1008100052EC61E070E00E947406C0E0D2E0888192
:1008200061E00E94F813888160E00E94AB14229678
:1008300082E0CC30D80799F787EB95E00E94810FD2
:1008400086E692E00E94770960E47DE083E090E034
:1008500048E451E00E94060A0E94E80BDF91CF9124
:1008600008951F920F920FB60F920BB60F9211249C
:100870002F933F934F938F939F93EF93FF93809189
:10088000C00082FD1DC04091C6002091EC02309155
:10089000ED022F5F3F4F2F7330708091EE029091E9
:1008A000EF022817390771F0E091EC02F091ED02A8
:1008B000E455FD4F40833093ED022093EC0202C0DB
:1008C0008091C600FF91EF919F918F914F913F9141
:1008D0002F910F900BBE0F900FBE0F901F90189589
:1008E0001F920F920FB60F920BB60F9211242F93F7
:1008F0003F934F938F939F93EF93FF938091C80003
:1009000082FD1DC04091CE0020917403309175038B
:100910002F5F3F4F2F733070809176039091770354
:100920002817390771F0E0917403F0917503EC5CBE
:10093000FC4F4083309375032093740302C0809171
:10094000CE00FF91EF919F918F914F913F912F9109
:100950000F900BBE0F900FBE0F901F90189508952B
:100960001F920F920FB60F920BB60F9211242F9376
:100970003F934F938F939F93EF93FF938091D0007A
:1009800082FD1DC04091D6002091FC033091FD03F3
:100990002F5F3F4F2F7330708091FE039091FF03C4
:1009A0002817390771F0E091FC03F091FD03E4543E
:1009B000FC4F40833093FD032093FC0302C08091E1
:1009C000D600FF91EF919F918F914F913F912F9181
:1009D0000F900BBE0F900FBE0F901F9018950895AB
:1009E0001F920F920FB60F920BB60F9211242F93F6
:1009F0003F934F938F939F93EF93FF938091300199
:100A000082FD1DC0409136012091840430918504FF
:100A10002F5F3F4F2F733070809186049091870431
:100A20002817390771F0E0918404F0918504EC5B9C
:100A3000FB4F4083309385042093840402C080914F
:100A40003601FF91EF919F918F914F913F912F919F
:100A50000F900BBE0F900FBE0F901F901895E09156
:100A6000D804F091D904E05CFF4F819191912081ED
:100A70003181821B930B8F739070892B11F00E9430
:100A8000E701E091FA04F091FB04E05CFF4F8191F3
:100A9000919120813181821B930B8F739070892BF0
:100AA00011F00E949001E0911C05F0911D05E05CA1
:100AB000FF4F8191919120813181821B930B8F7324
:100AC0009070892B11F00E94AF04E0913E05F091E7
:100AD0003F05E05CFF4F8191919120813181821B24
:100AE000930B8F739070892B11F00E94EF0408957F
:100AF0001F920F920FB60F920BB60F9211242F93E5
:100B00003F938F939F93EF93FF9320913003309106
:100B1000310380913203909133032817390731F460
:100B20008091C1008F7D8093C10014C0E091320399
:100B3000F0913303E051FD4F208180913203909179
:100B4000330301968F739070909333038093320335
:100B50002093C600FF91EF919F918F913F912F912C
:100B60000F900BBE0F900FBE0F901F9018951F9205
:100B70000F920FB60F920BB60F9211242F933F9343
:100B80008F939F93EF93FF932091B8033091B90314
:100B90008091BA039091BB032817390731F48091F3
:100BA000C9008F7D8093C90014C0E091BA03F09111
:100BB000BB03E858FC4F20818091BA039091BB039E
:100BC00001968F7390709093BB038093BA03209328
:100BD000CE00FF91EF919F918F913F912F910F90B8
:100BE0000BBE0F900FBE0F901F9018951F920F9283
:100BF0000FB60F920BB60F9211242F933F938F9342
:100C00009F93EF93FF932091400430914104809192
:100C10004204909143042817390731F48091D100A0
:100C20008F7D8093D10014C0E0914204F091430481
:100C3000E050FC4F20818091420490914304019642
:100C40008F73907090934304809342042093D60056
:100C5000FF91EF919F918F913F912F910F900BBE3C
:100C60000F900FBE0F901F9018951F920F920FB606
:100C70000F920BB60F9211242F933F938F939F9354
:100C8000EF93FF932091C8043091C9048091CA0466
:100C90009091CB042817390731F4809131018F7D71
:100CA0008093310114C0E091CA04F091CB04E8575D
:100CB000FB4F20818091CA049091CB0401968F73E1
:100CC00090709093CB048093CA0420933601FF91D7
:100CD000EF919F918F913F912F910F900BBE0F90AD
:100CE0000FBE0F901F901895AF92BF92DF92EF92B8
:100CF000FF920F931F93CF93DF93EC017A018B0147
:100D0000DD24403081EE580780E0680780E07807F6
:100D100011F0DD24D39491E0A92EB12CEC89FD894A
:100D2000DD2069F0C50108A002C0880F991F0A9450
:100D3000E2F7808360E079E08DE390E005C0108207
:100D400060E874E88EE190E0A80197010E946616C1
:100D50002150304040405040569547953795279553
:100D600080E12030380720F0DD2011F0DD24D6CFDF
:100D7000E889F9893083EA89FB89208319A2EE8901
:100D8000FF89408121E030E0C9010C8C02C0880F4E
:100D9000991F0A94E2F7482B4083EE89FF8940812E
:100DA000C9010D8C02C0880F991F0A94E2F7482BE5
:100DB0004083EE89FF894081C9010E8C02C0880FF3
:100DC000991F0A94E2F7482B4083EE89FF898081BE
:100DD0000F8C02C0220F331F0A94E2F720952823BC
:100DE0002083DF91CF911F910F91FF90EF90DF90C3
:100DF000BF90AF900895DC011C96ED91FC911D977A
:100E0000E05CFF4F2191319180819181281B390B4A
:100E10002F733070C9010895DC011C96ED91FC918F
:100E20001D97E05CFF4F20813181E054F040DF01ED
:100E3000AE5BBF4F8D919C9111972817390719F41C
:100E40002FEF3FEF07C08D919C91E80FF91F808134
:100E5000282F30E0C9010895DC011C96ED91FC912A
:100E60001D97E05CFF4F20813181E054F040DF01AD
:100E7000AE5BBF4F8D919C9111972817390719F4DC
:100E80002FEF3FEF10C08D919C911197E80FF91F44
:100E900020818D919C91119701968F73907011967E
:100EA0009C938E9330E0C9010895DC0191968C915A
:100EB0009197882339F05496ED91FC915597808154
:100EC00086FFF9CF91961C920895CF93DF93EC01A2
:100ED000EE85FF85E05CFF4F20813181E054F040DA
:100EE0002F5F3F4F2F733070DF01AE5BBF4F8D918F
:100EF0009C91119728173907D1F3E05CFF4F80814F
:100F00009181E054F040E80FF91F6083EE85FF8582
:100F1000E05CFF4F31832083EE89FF89208181E0EF
:100F200090E00F8C02C0880F991F0A94E2F7282BDB
:100F3000208381E089A3EC89FD898081806480839E
:100F400081E090E0DF91CF9108951F931092CF043C
:100F50001092CE0428EE33E040E050E02093D0041D
:100F60003093D1044093D2045093D3046AE472E0E6
:100F70007093CD046093CC048CEA92E09093D904F2
:100F80008093D80480EF92E09093DB048093DA049E
:100F900085EC90E09093DD048093DC0484EC90E099
:100FA0009093DF048093DE0480EC90E09093E10462
:100FB0008093E00481EC90E09093E3048093E2045A
:100FC00082EC90E09093E5048093E40486EC90E05A
:100FD0009093E7048093E60414E01093E804B3E0F0
:100FE000B093E904A7E0A093EA04F5E0F093EB04E2
:100FF000E1E0E093EC041092F1041092F0042093ED
:10100000F2043093F3044093F4045093F504709386
:10101000EF046093EE0484E393E09093FB048093E9
:10102000FA0488E793E09093FD048093FC048DEC30
:1010300090E09093FF048093FE048CEC90E09093FA
:1010400001058093000588EC90E090930305809360
:10105000020589EC90E090930505809304058AECE5
:1010600090E090930705809306058EEC90E09093B6
:1010700009058093080510930A05B0930B05A0930A
:101080000C05F0930D05E0930E05109213051092D8
:1010900012052093140530931505409316055093BF
:1010A000170570931105609310058CEB93E09093F6
:1010B0001D0580931C0580E094E090931F058093AC
:1010C0001E0585ED90E0909321058093200584ED29
:1010D00090E0909323058093220580ED90E090931B
:1010E00025058093240581ED90E09093270580935A
:1010F000260582ED90E0909329058093280586EDE2
:1011000090E090932B0580932A0510932C05B093C3
:101110002D05A0932E05F0932F05E0933005109236
:1011200035051092340520933605309337054093EA
:10113000380550933905709333056093320584E484
:1011400094E090933F0580933E0588E894E0909367
:1011500041058093400585E391E09093430580939A
:10116000420584E391E0909345058093440580E334
:1011700091E0909347058093460581E391E0909339
:1011800049058093480582E391E090934B05809355
:101190004A0586E391E090934D0580934C051093AA
:1011A0004E05B0934F05A0935005F0935105E09381
:1011B00052051F910895FC0188E6808308952F92BF
:1011C0003F924F925F926F927F928F929F92AF92D7
:1011D000BF92CF92DF92EF92FF920F931F935C0129
:1011E0004B013A01290118019C012F5F3F4F0091EB
:1011F000440210914502FC0180816BE34EE00E94A5
:101200002115F501918180E0228130E0822B932B22
:10121000F40191838083F501938180E0248130E0A3
:10122000822B932BF30191838083F501958180E0DC
:10123000268130E0822B932BF20191838083F5018C
:10124000918580E0228530E0822B932BF101918300
:101250008083F501938580E0248530E0822B932BF9
:10126000F70191838083F501958580E0268530E044
:10127000822B932BF601918380831F910F91FF9016
:10128000EF90DF90CF90BF90AF909F908F907F9026
:101290006F905F904F903F902F900895FC01262F04
:1012A00080816BE646E00E942C1608950F93FC01A6
:1012B000062F80816BE642E023E00E94E2150F9149
:1012C00008950F93FC01062F80816CE144E022E039
:1012D0000E94E2150F9108950F93FC01062F808163
:1012E0006BE144E022E00E94E2150F9108950F9314
:1012F0001F938C0161E00E945609C80160E00E94C2
:101300006C09C80160E00E946109C80160E00E94A8
:101310004E091F910F910895CF92DF92EF92FF92A5
:101320000F931F93CF93DF937C016B018A01C0E081
:10133000D0E00FC0D6016D916D01D701ED91FC9108
:101340000190F081E02DC7011995C80FD91F0150F8
:1013500010400115110571F7CE01DF91CF911F915A
:101360000F91FF90EF90DF90CF900895CF93DF9390
:10137000EC010E944F12688779878A879B87E881F2
:10138000F9810680F781E02DCE0119959C0197FF28
:1013900015C00E944F12288539854A855B85621BDE
:1013A000730B840B950B2C813D814E815F816217FD
:1013B00073078407950718F32FEF3FEFC901DF91FB
:1013C000CF910895CF92DF92EF92FF920F931F93E8
:1013D000CF93DF936C018B017A01C0E0D0E009C0AC
:1013E000C6010E94B60997FD07C0F80181938F01DD
:1013F0002196CE15DF05A0F3CE01DF91CF911F918D
:101400000F91FF90EF90DF90CF900895EF92FF92B1
:101410000F931F93CF93DF937B018C01EA0180919F
:101420006F008E7F80936F00809180008D7F80930E
:101430008000809180008E7F809380008091810069
:10144000877F80938100809181008F7E80938100CF
:1014500080918100887F809381008AE0E816F10402
:101460000105110560F48091810081608093810005
:101470008FEE9FEF9093600580935F0584C184EFAA
:10148000E81681E0F80680E0080780E0180708F019
:1014900070C080918100826080938100C801B70193
:1014A00024E630E040E050E00E94661661157105C8
:1014B0008105910569F487E39FEF90936005809320
:1014C0005F05C801B70124E630E040E050E033C0DA
:1014D000C801B70122E330E040E050E00E94661608
:1014E000611571058105910569F48BE99FEF909372
:1014F000600580935F05C801B70122E330E040E05A
:1015000050E019C0C801B70124E130E040E050E0EC
:101510000E946616611571058105910599F487EDA4
:101520009FEF9093600580935F05C801B70124E1A8
:1015300030E040E050E00E946616C901DA017C010B
:101540008D0121C1C801B7012AE030E040E050E040
:101550000E946616611571058105910519F48BEEDF
:101560009FEF7CC08DEF9FEF9093600580935F05A8
:101570001CC180EDE81687E0F80680E0080780E0EF
:10158000180708F076C08091810083608093810005
:10159000C801B70128EC30E040E050E00E94661638
:1015A000611571058105910599F48DEC9FEF90937C
:1015B000600580935F05C801B70128EC30E040E08A
:1015C00050E00E946616C901DA017C018D01EDC070
:1015D000C801B70124E630E040E050E00E94661602
:1015E000611571058105910519F486EE9FEFC0C064
:1015F000C801B70122E330E040E050E00E946616E7
:10160000611571058105910569F483EF9FEF909352
:10161000600580935F05C801B70122E330E040E038
:1016200050E0CFCFC801B70124E130E040E050E006
:101630000E946616611571058105910569F48AEFAE
:101640009FEF9093600580935F05C801B70124E187
:1016500030E040E050E0B5CF8DEF9FEF9093600514
:1016600080935F05C801B7012AE030E040E050E018
:10167000A8CF80918100846080938100C801B70168
:1016800020EA3FE040E050E00E94661661157105D7
:101690008105910569F485E09FEF90936005809343
:1016A0005F05C801B70120EA3FE040E050E043CFCA
:1016B000C801B70120ED37E040E050E00E94661617
:1016C000611571058105910569F482E89FEF90939A
:1016D000600580935F05C801B70120ED37E040E069
:1016E00050E06FCFC801B70128EE33E040E050E092
:1016F0000E946616611571058105910569F481ECFA
:101700009FEF9093600580935F05C801B70128EEB5
:1017100033E040E050E055CFC801B70124EF31E09D
:1017200040E050E00E946616611571058105910543
:1017300069F480EE9FEF9093600580935F05C80188
:10174000B70124EF31E040E050E03BCFC801B701E2
:1017500028EC30E040E050E00E946616611571050B
:101760008105910519F483EF9FEF21CF89EF9FEF5A
:101770009093600580935F05C801B70124E630E0CF
:1017800040E050E01ECFE114F1040105110569F4B9
:1017900081E090E0A0E0B0E080935405909355057F
:1017A000A0935605B093570508C0E0925405F092F7
:1017B00055050093560510935705D0935905C093CE
:1017C0005805DF91CF911F910F91FF90EF900895F1
:1017D00010925A0510925B0510925C0510925D05FF
:1017E00010925E0580915F05909160058093840062
:1017F00080915F059091600590938500EFE6F0E0A1
:10180000808181608083089580915A0590915B0565
:10181000A0915C05B0915D050196A11DB11D80935D
:101820005A0590935B05A0935C05B0935D052091EC
:101830005A0530915B0540915C0550915D058091A2
:10184000540590915505A0915605B091570528175C
:1018500039074A075B07B0F080915E05882391F451
:1018600081E080935E0510925A0510925B051092FC
:101870005C0510925D05E0915805F09159051995A8
:1018800010925E0508951F920F920FB60F920BB63D
:101890000F9211242F933F934F935F936F937F93F6
:1018A0008F939F93AF93BF93EF93FF9380915F05C7
:1018B000909160058093840080915F059091600510
:1018C000909385000E94040CFF91EF91BF91AF911E
:1018D0009F918F917F916F915F914F913F912F9148
:1018E0000F900BBE0F900FBE0F901F901895883071
:1018F00008F078C0E82FF0E0EE0FFF1FEF59FA4F25
:10190000718360838330D9F0843030F4813009F4FE
:1019100044C0823060F439C0853051F18530D8F050
:10192000863009F446C0873009F05CC04FC0809112
:1019300069008C7F842B80936900E89A08958091D8
:101940006900440F551F440F551F837F842B8093DC
:101950006900E99A08958091690074E0440F551F69
:101960007A95E1F78F7C842B80936900EA9A089539
:101970008091690066E0440F551F6A95E1F78F7307
:10198000842B80936900EB9A089580916A008C7F84
:10199000842B80936A00EC9A089580916A00440F2A
:1019A000551F440F551F837F842B80936A00ED9A47
:1019B000089580916A0024E0440F551F2A95E1F7AD
:1019C0008F7C842B80936A00EE9A089580916A0040
:1019D00096E0440F551F9A95E1F78F73842B8093FF
:1019E0006A00EF9A0895883048F5833091F084308A
:1019F00028F48130B1F0823050F411C0853069F0A4
:101A0000853048F0863079F0873081F40EC0E89850
:101A10000DC0E9980BC0EA9809C0EB9807C0EC9894
:101A200005C0ED9803C0EE9801C0EF98E82FF0E0F4
:101A3000EE0FFF1FEF59FA4F1182108208951F9287
:101A40000F920FB60F920BB60F9211242F933F9364
:101A50004F935F936F937F938F939F93AF93BF93B6
:101A6000EF93FF938091650590916605892B29F08E
:101A7000E0916505F09166051995FF91EF91BF9191
:101A8000AF919F918F917F916F915F914F913F9116
:101A90002F910F900BBE0F900FBE0F901F901895B7
:101AA0001F920F920FB60F920BB60F9211242F9325
:101AB0003F934F935F936F937F938F939F93AF93D6
:101AC000BF93EF93FF938091670590916805892BF1
:101AD00029F0E0916705F09168051995FF91EF9164
:101AE000BF91AF919F918F917F916F915F914F9136
:101AF0003F912F910F900BBE0F900FBE0F901F9034
:101B000018951F920F920FB60F920BB60F921124D9
:101B10002F933F934F935F936F937F938F939F93F5
:101B2000AF93BF93EF93FF938091690590916A05FE
:101B3000892B29F0E0916905F0916A051995FF91CB
:101B4000EF91BF91AF919F918F917F916F915F9135
:101B50004F913F912F910F900BBE0F900FBE0F90A2
:101B60001F9018951F920F920FB60F920BB60F92FF
:101B700011242F933F934F935F936F937F938F9392
:101B80009F93AF93BF93EF93FF9380916B059091D9
:101B90006C05892B29F0E0916B05F0916C05199586
:101BA000FF91EF91BF91AF919F918F917F916F9135
:101BB0005F914F913F912F910F900BBE0F900FBEF1
:101BC0000F901F9018951F920F920FB60F920BB6A1
:101BD0000F9211242F933F934F935F936F937F93B3
:101BE0008F939F93AF93BF93EF93FF938091610582
:101BF00090916205892B29F0E0916105F0916205D1
:101C00001995FF91EF91BF91AF919F918F917F9126
:101C10006F915F914F913F912F910F900BBE0F905D
:101C20000FBE0F901F9018951F920F920FB60F9234
:101C30000BB60F9211242F933F934F935F936F93A3
:101C40007F938F939F93AF93BF93EF93FF93809175
:101C5000630590916405892B29F0E0916305F0916B
:101C600064051995FF91EF91BF91AF919F918F916D
:101C70007F916F915F914F913F912F910F900BBE8C
:101C80000F900FBE0F901F9018951F920F920FB6D6
:101C90000F920BB60F9211242F933F934F935F93A4
:101CA0006F937F938F939F93AF93BF93EF93FF9324
:101CB00080916D0590916E05892B29F0E0916D055D
:101CC000F0916E051995FF91EF91BF91AF919F91A2
:101CD0008F917F916F915F914F913F912F910F90D5
:101CE0000BBE0F900FBE0F901F9018951F920F9272
:101CF0000FB60F920BB60F9211242F933F934F9371
:101D00005F936F937F938F939F93AF93BF93EF9363
:101D1000FF9380916F0590917005892B29F0E091D8
:101D20006F05F09170051995FF91EF91BF91AF91FB
:101D30009F918F917F916F915F914F913F912F91E3
:101D40000F900BBE0F900FBE0F901F90189581E063
:101D50008093B605609393051092B4051092B50573
:101D600008952091920530E080919105281B31095A
:101D7000C90108954091910580919205481718F086
:101D80002FEF3FEF0AC0E42FF0E0EF58FA4F8081C9
:101D9000282F30E04F5F40939105C9010895E091ED
:101DA000910580919205E81718F0EFEFFFEF06C05C
:101DB000F0E0EF58FA4F8081E82FF0E0CF0108956E
:101DC00008951092BA051092B90588EE93E0A0E04C
:101DD000B0E08093BB059093BC05A093BD05B09384
:101DE000BE058AE592E09093B8058093B705089503
:101DF000CF92DF92EF92FF920F931F93CF93DF93D7
:101E00007C016B018A018091B6058823A1F0C0E0B6
:101E1000D0E00DC0D701ED91FC91D601AC0FBD1FF4
:101E20000190F081E02DC7016C9119952196C017A2
:101E3000D10780F304C0CB01642F0E943910C80180
:101E4000DF91CF911F910F91FF90EF90DF90CF9096
:101E50000895DF93CF930F92CDB7DEB7FC0169836E
:101E60008091B6058823C9F08091B505803238F09D
:101E700081E090E09383828320E030E015C0809180
:101E8000B405E82FF0E0EC56FA4F998190838F5F0C
:101E90008093B4058093B50505C0CE01019661E03D
:101EA0000E94391021E030E0C9010F90CF91DF91FD
:101EB00008950F93062F8091930564E975E0409192
:101EC000B50521E00E94E40F1092B4051092B5050B
:101ED0001092B6050F91089561E00E94590F089580
:101EE000413208F040E2862F61E775E00E949B0FC7
:101EF0001092910580939205089521E00E94700F41
:101F0000089510929105109292051092B4051092C6
:101F1000B5050E94E9110895CF93DF930E94B61290
:101F20000E94FB03CFE2D5E00E947C022097E1F300
:101F30000E942F05F9CF382F413210F040E042C007
:101F40008091C3058823E1F791E09093C305209326
:101F5000C5058FEF809330061092EB0541504093FA
:101F6000EC054F5F9093C4058091C405330F832B1C
:101F70008093C4058091C605813041F41092C60556
:101F80008091C4058093BB0085EC01C085EE8093F1
:101F9000BC008091C3058130E1F38091EB0584178B
:101FA00010F44091EB0520E030E00AC0FB01E20FA5
:101FB000F31FD901A553BA4F8C9180832F5F3F4FF8
:101FC0002417A0F3842F08950F931F93582F122FD7
:101FD000413210F081E04AC08091C3058823E1F7C7
:101FE00082E08093C3050093C5058FEF8093300690
:101FF0001092EB054093EC05ABECB5E0FB0102C0A1
:1020000081918D938E2F861B8417D0F31092C40577
:102010008091C405550F852B8093C4058091C6051A
:10202000813041F41092C6058091C4058093BB00B5
:1020300085EC01C085EE8093BC00112321F08091D6
:10204000C3058230E1F3809130068F3F11F480E0C8
:102050000DC080913006803211F482E007C080917B
:102060003006803311F084E001C083E01F910F91AE
:102070000895482F613210F081E008958091C305E2
:10208000843011F082E0089560930E06ADEEB5E065
:10209000842F9C01F90102C081918D938E2F841BA6
:1020A0008617D0F380E008951F920F920FB60F921B
:1020B0000BB60F9211242F933F934F935F936F931F
:1020C0007F938F939F93AF93BF93EF93FF938091F1
:1020D000B90090E0887F90708036910509F4F2C0D5
:1020E00081369105CCF58832910509F47BC089329F
:1020F0009105B4F48031910509F46FC081319105E7
:102100003CF4009709F447C1089709F04FC165C036
:102110008831910509F466C0809709F047C182C0F3
:102120008034910509F4A4C08134910544F48033CE
:10213000910509F482C0C89709F038C189C080357B
:10214000910509F489C08835910509F496C0883451
:10215000910509F02BC1AEC08839910509F413C16E
:1021600089399105ECF48837910509F4ABC08937BA
:1021700091054CF48836910509F4A4C08037910587
:1021800009F014C19FC08838910509F4FCC080395A
:10219000910509F49DC08038910509F007C198C0E8
:1021A000803B910509F4C6C0813B91054CF4803A0F
:1021B000910509F49FC0883A910509F0F7C0BAC0AB
:1021C000803C910509F4E3C0883C910509F4DFC027
:1021D000883B910509F0EAC0C2C08091C405809394
:1021E000BB00CFC09091EB058091EC05981768F487
:1021F0009091EB05E92FF0E0E553FA4F8081809351
:10220000BB009F5F9093EB05BCC08091C505882300
:1022100009F44BC085ED8093BC008091BC0084FD27
:10222000FCCFC2C080E28093300685ED8093BC0075
:102230008091BC0084FDFCCFB7C080E38093300662
:1022400085ED8093BC008091BC0084FDFCCFACC0C8
:1022500088E3809330069BC08091EB059091BB0092
:10226000E82FF0E0E553FA4F90838F5F8093EB0502
:102270009091EB058091EC0582C08091EB059091E7
:10228000BB00E82FF0E0E553FA4F90838F5F809317
:10229000EB058091C505882341F085ED8093BC0056
:1022A0008091BC0084FDFCCF7FC081E08093C60597
:1022B00084EA6EC085ED8093BC008091BC0084FDF3
:1022C000FCCF72C083E08093C30510922F0659C0E3
:1022D00080912F06803208F056C080912F06909191
:1022E000BB00E82FF0E0E15FF94F90838F5F8093B0
:1022F0002F0647C080912F06803230F4E0912F06E0
:10230000F0E0E15FF94F108285ED8093BC00809191
:10231000BC0084FDFCCF1092C30560912F06E091B4
:10232000C905F091CA058FE096E070E0199510920A
:102330002F062DC084E08093C30510920D061092E5
:102340000E06E091C705F091C805199580910E061B
:10235000882329F481E080930E061092ED05909178
:102360000D06E92FF0E0E351FA4F80818093BB0026
:102370009F5F90930D0690910D0680910E06981721
:1023800010F485EC01C085E88093BC000FC085EC9B
:102390008093BC0009C01092300685ED8093BC008C
:1023A0008091BC0084FDFCCF1092C305FF91EF919A
:1023B000BF91AF919F918F917F916F915F914F915D
:1023C0003F912F910F900BBE0F900FBE0F901F905B
:1023D00018951092C30581E08093C5051092C6053B
:1023E00084E161E00E94AB1485E161E00E94AB14DE
:1023F000E9EBF0E080818E7F808380818D7F808318
:1024000088E98093B80085E48093BC0008951F920A
:102410000F920FB60F9211242F933F938F939F9398
:10242000AF93BF938091350690913606A091370601
:10243000B0913806309139060196A11DB11D232FA8
:102440002D5F2D3720F02D570196A11DB11D209332
:1024500039068093350690933606A0933706B093DD
:1024600038068091310690913206A0913306B091E2
:1024700034060196A11DB11D80933106909332065A
:10248000A0933306B0933406BF91AF919F918F9183
:102490003F912F910F900FBE0F901F9018958FB7FF
:1024A000F8942091350630913606409137065091C8
:1024B00038068FBFB901CA0108959B01AC017FB7EF
:1024C000F8948091310690913206A0913306B09134
:1024D000340666B5A89B05C06F3F19F00196A11D93
:1024E000B11D7FBFBA2FA92F982F8827860F911D66
:1024F000A11DB11D62E0880F991FAA1FBB1F6A951D
:10250000D1F7BC012DC0FFB7F894809131069091AE
:102510003206A0913306B0913406E6B5A89B05C0FB
:10252000EF3F19F00196A11DB11DFFBFBA2FA92FD2
:10253000982F88278E0F911DA11DB11DE2E0880FF5
:10254000991FAA1FBB1FEA95D1F7861B970B885EC0
:102550009340C8F2215030404040504068517C4F79
:10256000211531054105510571F60895789484B51A
:10257000826084BD84B5816084BD85B5826085BD7F
:1025800085B5816085BDEEE6F0E080818160808365
:10259000E1E8F0E010828081826080838081816048
:1025A0008083E0E8F0E0808181608083E1EBF0E00F
:1025B000808184608083E0EBF0E0808181608083B3
:1025C000E1E9F0E0808182608083808181608083A6
:1025D000E0E9F0E0808181608083E1EAF0E08081E1
:1025E00082608083808181608083E0EAF0E0808186
:1025F00081608083E1E2F1E080818260808380817C
:1026000081608083E0E2F1E0808181608083EAE79D
:10261000F0E080818460808380818260808380811B
:10262000816080838081806880831092C1000895DA
:102630001F93CF93DF93182FEB0161E00E94F813F3
:10264000209709F4CAC0CF3FD10509F4C9C0E12FD2
:10265000F0E0E254FE4F8491893009F466C08A307C
:10266000B0F48430F1F1853040F4823059F1833098
:1026700070F5813009F0AEC020C0873009F443C046
:10268000883008F048C0863009F0A4C034C08D30CE
:1026900009F478C08E3038F48B3009F45AC08C308D
:1026A00008F066C04CC0803109F480C0813109F463
:1026B00087C08F3009F08EC06FC084B5806884BD3C
:1026C000C7BD92C084B5806284BDC8BD8DC08091F5
:1026D0008000806880938000D0938900C093880038
:1026E00083C080918000806280938000D0938B00B3
:1026F000C0938A0079C08091B00080688093B00058
:10270000C093B30071C08091B00080628093B0002C
:10271000C093B40069C0809190008068809390005D
:10272000D0939900C09398005FC080919000806220
:1027300080939000D0939B00C0939A0055C08091E5
:102740009000886080939000D0939D00C0939C007F
:102750004BC08091A00080688093A0008091A00071
:102760008F7B8093A000D093A900C093A8003CC0A9
:102770008091A00080628093A000D093AB00C093B2
:10278000AA0032C08091A00088608093A000D093FE
:10279000AD00C093AC0028C0809120018068809378
:1027A0002001D0932901C09328011EC080912001EF
:1027B000806280932001D0932B01C0932A0114C022
:1027C00080912001886080932001D0932D01C093D7
:1027D0002C010AC0C038D1051CF4812F60E002C072
:1027E000812F61E00E94AB14DF91CF911F9108957A
:1027F000CF93DF93482F50E0CA0188589E4FFC01C9
:1028000034914E5C5E4FFA018491882369F190E027
:10281000880F991FFC01EC51FF4FA591B491FC0169
:10282000E250FF4FC591D491662351F42FB7F8942D
:102830008C91932F909589238C93888189230BC049
:10284000623061F42FB7F8948C91932F909589237F
:102850008C938881832B88832FBF06C09FB7F89401
:102860008C91832B8C939FBFDF91CF9108958930FA
:1028700009F449C08A30A0F4843051F1853040F425
:10288000823079F1833000F5813009F063C026C0D1
:10289000873079F1883098F5863009F05BC025C023
:1028A0008D3009F442C08E3028F48B30B1F18C3079
:1028B000C0F52DC0803109F442C0813109F445C012
:1028C0008F3009F047C037C0809180008F7703C0F8
:1028D000809180008F7D80938000089584B58F77EC
:1028E00002C084B58F7D84BD08958091B0008F773C
:1028F00003C08091B0008F7D8093B00008958091D7
:1029000090008F7707C0809190008F7D03C08091E9
:102910009000877F8093900008958091A0008F772A
:1029200007C08091A0008F7D03C08091A000877FA9
:102930008093A0000895809120018F7703C080913B
:1029400020018F7D80932001089580912001877F51
:10295000809320010895FF920F931F93F62E482F26
:1029600050E0CA0182549E4FFC012491CA0188584C
:102970009E4FFC0114914E5C5E4FFA0104910023BE
:10298000C9F0222319F0822F0E943714E02FF0E0C3
:10299000EE0FFF1FE250FF4FA591B4919FB7F8943F
:1029A000FF2021F48C911095812302C08C91812B02
:1029B0008C939FBF1F910F91FF900895EF92FF920C
:1029C0000F931F93CF93DF93582F162FE42E022FD0
:1029D000F32E87EB95E0652F0E94A70E87EB95E01D
:1029E000612F0E94290F202F3F2DC901EC0110E01B
:1029F00006C087EB95E069910E94290F1F5F1E15A5
:102A0000C0F387EB95E00E946C0F90E0882309F4F7
:102A100091E0892FDF91CF911F910F91FF90EF905F
:102A20000895DF93CF930F92CDB7DEB7498341E08E
:102A30009E012F5F3F4F0E94DE140F90CF91DF91D8
:102A400008952F923F924F925F926F927F928F9252
:102A50009F92AF92BF92CF92DF92EF92FF920F932D
:102A60001F93DF93CF9300D00F920F92CDB7DEB7B5
:102A7000882E6983942E3B832A830E944F125B0128
:102A80006C01FF24EE24292C3324280166247724AA
:102A90004BC087EB95E0682D0E94A70E87EB95E071
:102AA00069810E94290F87EB95E00E946C0F87EBEC
:102AB00095E0682D0E94A70EA1014E1951094132DF
:102AC000510514F040E250E087EB95E0682D0E943C
:102AD0007D0F2F2D332727FD30958A819B81280F6D
:102AE000391F3D832C8387EB95E00E94B10E892B23
:102AF00009F452C00115110561F00E944F126A19C4
:102B00007B098C099D09641575058605970508F0F4
:102B100043C087EB95E00E94BA0EEC81FD81819362
:102B2000FD83EC83F394DFCFE91408F4B2CF0115F1
:102B30001105C9F00E944F126A197B098C099D0981
:102B4000980140E050E0621773078407950758F03A
:102B50002F2D332727FD3095892D90E02817390731
:102B600014F4FF24FA948F2D0F900F900F900F9074
:102B70000F90CF91DF911F910F91FF90EF90DF9019
:102B8000CF90BF90AF909F908F907F906F905F900D
:102B90004F903F902F90089587EB95E00E946C0F27
:102BA000892DF0E2F91508F480E2E80EBDCF0F930D
:102BB0001F93FA01890141E09F010E9421151F9195
:102BC0000F910895DF92EF92FF920F931F93DF937F
:102BD000CF930F92CDB7DEB7E82ED62EF42E122F5C
:102BE0002091440230914502AE014F5F5F4F0E9439
:102BF000D715882341F1212F30E04F2D50E04F5F52
:102C00005F4F421B530B81E090E002C0880F991F79
:102C10001A95E2F70197042E02C0880F991F0A94B3
:102C2000E2F7202F30E002C0220F331F4A95E2F76F
:102C3000482F4095598145238223482B49838E2D67
:102C40006D2D0E9411150F90CF91DF911F910F9163
:102C5000FF90EF90DF900895EF92FF920F931F93F4
:102C6000DF93CF930F92CDB7DEB7F82EE62E042F69
:102C7000122F2091440230914502AE014F5F5F4F09
:102C80000E94D7152981112351F081E090E002C004
:102C9000880F991F0A95E2F7422F482B0AC081E05E
:102CA00090E002C0880F991F0A95E2F7482F4095DF
:102CB000422349838F2D6E2D0E9411150F90CF91C5
:102CC000DF911F910F91FF90EF900895A1E21A2ECE
:102CD000AA1BBB1BFD010DC0AA1FBB1FEE1FFF1FC0
:102CE000A217B307E407F50720F0A21BB30BE40B10
:102CF000F50B661F771F881F991F1A9469F7609557
:102D00007095809590959B01AC01BD01CF01089510
:102D1000EE0FFF1F0590F491E02D1994F894FFCF6A
:102D20001600170018001900040005007600F000D6
:102D3000F076000F000F7600210000000076003CC6
:102D4000000000000000000000000000000076000D
:102D50003300000000000000000000000000000040
:102D600000000000E8030000000065078C09FB0676
:102D70002C070C07550700000000290FF80EB10EB4
:062D8000BA0ECF0EE00EBA
:00000001FF
